{
  "_format": "hh-sol-artifact-1",
  "contractName": "RFVoting",
  "sourceName": "contracts/RFVoting.sol",
  "abi": [
    {
      "anonymous": false,
      "inputs": [
        {
          "indexed": true,
          "internalType": "address",
          "name": "voter",
          "type": "address"
        },
        {
          "indexed": false,
          "internalType": "bytes",
          "name": "vote",
          "type": "bytes"
        }
      ],
      "name": "Voted",
      "type": "event"
    },
    {
      "inputs": [
        {
          "internalType": "address",
          "name": "id",
          "type": "address"
        }
      ],
      "name": "getVote",
      "outputs": [
        {
          "internalType": "bytes",
          "name": "",
          "type": "bytes"
        }
      ],
      "stateMutability": "nonpayable",
      "type": "function"
    },
    {
      "inputs": [],
      "name": "id",
      "outputs": [
        {
          "internalType": "uint256",
          "name": "",
          "type": "uint256"
        }
      ],
      "stateMutability": "view",
      "type": "function"
    },
    {
      "inputs": [],
      "name": "tester",
      "outputs": [
        {
          "internalType": "string",
          "name": "",
          "type": "string"
        }
      ],
      "stateMutability": "view",
      "type": "function"
    },
    {
      "inputs": [
        {
          "internalType": "bytes",
          "name": "_encVote",
          "type": "bytes"
        }
      ],
      "name": "voteEncrypted",
      "outputs": [],
      "stateMutability": "nonpayable",
      "type": "function"
    },
    {
      "inputs": [
        {
          "internalType": "address",
          "name": "voter",
          "type": "address"
        }
      ],
      "name": "votes",
      "outputs": [
        {
          "internalType": "bytes",
          "name": "vote",
          "type": "bytes"
        }
      ],
      "stateMutability": "view",
      "type": "function"
    }
  ],
  "bytecode": "0x60c060405260046080908152631d195cdd60e21b60a05260019061002390826100da565b50600060025534801561003557600080fd5b50610199565b634e487b7160e01b600052604160045260246000fd5b600181811c9082168061006557607f821691505b60208210810361008557634e487b7160e01b600052602260045260246000fd5b50919050565b601f8211156100d557600081815260208120601f850160051c810160208610156100b25750805b601f850160051c820191505b818110156100d1578281556001016100be565b5050505b505050565b81516001600160401b038111156100f3576100f361003b565b610107816101018454610051565b8461008b565b602080601f83116001811461013c57600084156101245750858301515b600019600386901b1c1916600185901b1785556100d1565b600085815260208120601f198616915b8281101561016b5788860151825594840194600190910190840161014c565b50858210156101895787850151600019600388901b60f8161c191681555b5050505050600190811b01905550565b61046d806101a86000396000f3fe608060405234801561001057600080fd5b50600436106100675760003560e01c80638d337b81116100505780638d337b811461009f578063af640d0f146100b2578063d8bff5a5146100c957600080fd5b806351d321dd1461006c5780638308abd414610081575b600080fd5b61007f61007a3660046102b8565b6100dc565b005b610089610142565b60405161009691906103af565b60405180910390f35b6100896100ad3660046103c9565b6101d0565b6100bb60025481565b604051908152602001610096565b6100896100d73660046103c9565b610289565b600280549060006100ec836103ff565b91905055503373ffffffffffffffffffffffffffffffffffffffff167fa41dfcf9a32d4a045f0fc9b70c87033b28841009e2331a87810194c0e57bdf088260405161013791906103af565b60405180910390a250565b6001805461014f90610426565b80601f016020809104026020016040519081016040528092919081815260200182805461017b90610426565b80156101c85780601f1061019d576101008083540402835291602001916101c8565b820191906000526020600020905b8154815290600101906020018083116101ab57829003601f168201915b505050505081565b73ffffffffffffffffffffffffffffffffffffffff8116600090815260208190526040902080546060919061020490610426565b80601f016020809104026020016040519081016040528092919081815260200182805461023090610426565b801561027d5780601f106102525761010080835404028352916020019161027d565b820191906000526020600020905b81548152906001019060200180831161026057829003601f168201915b50505050509050919050565b6000602081905290815260409020805461014f90610426565b634e487b7160e01b600052604160045260246000fd5b6000602082840312156102ca57600080fd5b813567ffffffffffffffff808211156102e257600080fd5b818401915084601f8301126102f657600080fd5b813581811115610308576103086102a2565b604051601f8201601f19908116603f01168101908382118183101715610330576103306102a2565b8160405282815287602084870101111561034957600080fd5b826020860160208301376000928101602001929092525095945050505050565b6000815180845260005b8181101561038f57602081850181015186830182015201610373565b506000602082860101526020601f19601f83011685010191505092915050565b6020815260006103c26020830184610369565b9392505050565b6000602082840312156103db57600080fd5b813573ffffffffffffffffffffffffffffffffffffffff811681146103c257600080fd5b60006001820161041f57634e487b7160e01b600052601160045260246000fd5b5060010190565b600181811c9082168061043a57607f821691505b60208210810361045a57634e487b7160e01b600052602260045260246000fd5b5091905056fea164736f6c6343000815000a",
  "linkReferences": {},
  "deployedLinkReferences": {}
}